{
  "contractName": "Item",
  "abi": [
    {
      "inputs": [
        {
          "internalType": "contract ItemManager",
          "name": "_parentContract",
          "type": "address"
        },
        {
          "internalType": "uint256",
          "name": "_priceInWei",
          "type": "uint256"
        },
        {
          "internalType": "uint256",
          "name": "_index",
          "type": "uint256"
        }
      ],
      "stateMutability": "nonpayable",
      "type": "constructor"
    },
    {
      "stateMutability": "nonpayable",
      "type": "fallback"
    },
    {
      "inputs": [],
      "name": "index",
      "outputs": [
        {
          "internalType": "uint256",
          "name": "",
          "type": "uint256"
        }
      ],
      "stateMutability": "view",
      "type": "function"
    },
    {
      "inputs": [],
      "name": "priceInWei",
      "outputs": [
        {
          "internalType": "uint256",
          "name": "",
          "type": "uint256"
        }
      ],
      "stateMutability": "view",
      "type": "function"
    },
    {
      "inputs": [],
      "name": "pricePaid",
      "outputs": [
        {
          "internalType": "uint256",
          "name": "",
          "type": "uint256"
        }
      ],
      "stateMutability": "view",
      "type": "function"
    },
    {
      "stateMutability": "payable",
      "type": "receive"
    }
  ],
  "bytecode": "0x608060405234801561001057600080fd5b50604051610721380380610721833981810160405281019061003291906100b3565b816000819055508060028190555082600360006101000a81548173ffffffffffffffffffffffffffffffffffffffff021916908373ffffffffffffffffffffffffffffffffffffffff16021790555050505061017e565b60008151905061009881610150565b92915050565b6000815190506100ad81610167565b92915050565b6000806000606084860312156100c857600080fd5b60006100d686828701610089565b93505060206100e78682870161009e565b92505060406100f88682870161009e565b9150509250925092565b600061010d82610126565b9050919050565b600061011f82610102565b9050919050565b600073ffffffffffffffffffffffffffffffffffffffff82169050919050565b6000819050919050565b61015981610114565b811461016457600080fd5b50565b61017081610146565b811461017b57600080fd5b50565b6105948061018d6000396000f3fe6080604052600436106100385760003560e01c80632986c0e5146102505780633c8da5881461027b57806389794d00146102a657610241565b3661024157600060015414610082576040517f08c379a0000000000000000000000000000000000000000000000000000000008152600401610079906103fa565b60405180910390fd5b34600054146100c6576040517f08c379a00000000000000000000000000000000000000000000000000000000081526004016100bd9061043a565b60405180910390fd5b34600160008282546100d8919061049c565b925050819055506000600360009054906101000a900473ffffffffffffffffffffffffffffffffffffffff1673ffffffffffffffffffffffffffffffffffffffff163460025460405160240161012e919061045a565b6040516020818303038152906040527f800fb83f000000000000000000000000000000000000000000000000000000007bffffffffffffffffffffffffffffffffffffffffffffffffffffffff19166020820180517bffffffffffffffffffffffffffffffffffffffffffffffffffffffff83818316178352505050506040516101b891906103e3565b60006040518083038185875af1925050503d80600081146101f5576040519150601f19603f3d011682016040523d82523d6000602084013e6101fa565b606091505b505090508061023e576040517f08c379a00000000000000000000000000000000000000000000000000000000081526004016102359061041a565b60405180910390fd5b50005b34801561024d57600080fd5b50005b34801561025c57600080fd5b506102656102d1565b604051610272919061045a565b60405180910390f35b34801561028757600080fd5b506102906102d7565b60405161029d919061045a565b60405180910390f35b3480156102b257600080fd5b506102bb6102dd565b6040516102c8919061045a565b60405180910390f35b60025481565b60005481565b60015481565b60006102ee82610475565b6102f88185610480565b93506103088185602086016104fc565b80840191505092915050565b600061032160168361048b565b91507f4974656d20697320616c726561647920706169646564000000000000000000006000830152602082019050919050565b6000610361601d8361048b565b91507f54726173616374696f6e206661696c65642c2063616e63656c6c696e670000006000830152602082019050919050565b60006103a1601c8361048b565b91507f77726f6e672076616c75652073656e742c2063616e63656c6c696e67000000006000830152602082019050919050565b6103dd816104f2565b82525050565b60006103ef82846102e3565b915081905092915050565b6000602082019050818103600083015261041381610314565b9050919050565b6000602082019050818103600083015261043381610354565b9050919050565b6000602082019050818103600083015261045381610394565b9050919050565b600060208201905061046f60008301846103d4565b92915050565b600081519050919050565b600081905092915050565b600082825260208201905092915050565b60006104a7826104f2565b91506104b2836104f2565b9250827fffffffffffffffffffffffffffffffffffffffffffffffffffffffffffffffff038211156104e7576104e661052f565b5b828201905092915050565b6000819050919050565b60005b8381101561051a5780820151818401526020810190506104ff565b83811115610529576000848401525b50505050565b7f4e487b7100000000000000000000000000000000000000000000000000000000600052601160045260246000fdfea2646970667358221220cfe4589fd3dc8f7367e979713ee327b7088b0b795451074bbedc4ffe23857cbf64736f6c63430008000033",
  "immutableReferences": {},
  "source": "// SPDX-License-Identifier: MIT\npragma solidity ^0.8.0;\n\nimport \"./ItemManager.sol\";\n\ncontract Item {\n    \n    uint public priceInWei;\n    uint public pricePaid;\n    uint public index;\n    \n    ItemManager parentContract;\n    \n    constructor(ItemManager _parentContract, uint _priceInWei, uint _index) { \n          priceInWei = _priceInWei;\n          index = _index;\n          parentContract = _parentContract;\n    }\n    \n    receive() external payable {\n        require(pricePaid == 0, \"Item is already paided\");\n        require(priceInWei == msg.value, \"wrong value sent, cancelling\");\n        pricePaid += msg.value;\n        (bool success, ) = address(parentContract).call{\n            value: (msg.value)\n        }(\n            abi.encodeWithSignature(\"triggerPayment(uint256)\", index)\n        );\n        \n        require(success, \"Trasaction failed, cancelling\");\n    }\n    \n    fallback() external {\n    \n    }\n}\n",
  "sourcePath": "/Users/ricardoteixeira/Documents/code/solidity/udemy_bootcamp/session07/01_next/contracts/Item.sol",
  "compiler": {
    "name": "solc",
    "version": "0.8.0+commit.c7dfd78e.Emscripten.clang"
  },
  "schemaVersion": "3.4.1",
  "updatedAt": "2021-05-19T22:35:40.314Z",
  "devdoc": {
    "kind": "dev",
    "methods": {},
    "version": 1
  },
  "userdoc": {
    "kind": "user",
    "methods": {},
    "version": 1
  }
}