{
  "contractName": "ItemManager",
  "abi": [
    {
      "anonymous": false,
      "inputs": [
        {
          "indexed": true,
          "internalType": "address",
          "name": "previousOwner",
          "type": "address"
        },
        {
          "indexed": true,
          "internalType": "address",
          "name": "newOwner",
          "type": "address"
        }
      ],
      "name": "OwnershipTransferred",
      "type": "event"
    },
    {
      "anonymous": false,
      "inputs": [
        {
          "indexed": false,
          "internalType": "uint256",
          "name": "_itemIndex",
          "type": "uint256"
        },
        {
          "indexed": false,
          "internalType": "uint256",
          "name": "_step",
          "type": "uint256"
        },
        {
          "indexed": false,
          "internalType": "address",
          "name": "_addressItem",
          "type": "address"
        }
      ],
      "name": "SupplyChainStep",
      "type": "event"
    },
    {
      "inputs": [
        {
          "internalType": "uint256",
          "name": "",
          "type": "uint256"
        }
      ],
      "name": "items",
      "outputs": [
        {
          "internalType": "contract Item",
          "name": "_item",
          "type": "address"
        },
        {
          "internalType": "string",
          "name": "_identifier",
          "type": "string"
        },
        {
          "internalType": "uint256",
          "name": "_price",
          "type": "uint256"
        },
        {
          "internalType": "enum ItemManager.SuplyChainState",
          "name": "_state",
          "type": "uint8"
        }
      ],
      "stateMutability": "view",
      "type": "function",
      "constant": true
    },
    {
      "inputs": [],
      "name": "owner",
      "outputs": [
        {
          "internalType": "address",
          "name": "",
          "type": "address"
        }
      ],
      "stateMutability": "view",
      "type": "function",
      "constant": true
    },
    {
      "inputs": [],
      "name": "renounceOwnership",
      "outputs": [],
      "stateMutability": "nonpayable",
      "type": "function"
    },
    {
      "inputs": [
        {
          "internalType": "address",
          "name": "newOwner",
          "type": "address"
        }
      ],
      "name": "transferOwnership",
      "outputs": [],
      "stateMutability": "nonpayable",
      "type": "function"
    },
    {
      "inputs": [
        {
          "internalType": "string",
          "name": "_identifier",
          "type": "string"
        },
        {
          "internalType": "uint256",
          "name": "_price",
          "type": "uint256"
        }
      ],
      "name": "createItem",
      "outputs": [],
      "stateMutability": "nonpayable",
      "type": "function"
    },
    {
      "inputs": [
        {
          "internalType": "uint256",
          "name": "_itemIndex",
          "type": "uint256"
        }
      ],
      "name": "triggerPayment",
      "outputs": [],
      "stateMutability": "payable",
      "type": "function",
      "payable": true
    },
    {
      "inputs": [
        {
          "internalType": "uint256",
          "name": "_itemIndex",
          "type": "uint256"
        }
      ],
      "name": "triggerDelivery",
      "outputs": [],
      "stateMutability": "nonpayable",
      "type": "function"
    }
  ],
  "bytecode": "0x608060405234801561001057600080fd5b5060006100216100c460201b60201c565b9050806000806101000a81548173ffffffffffffffffffffffffffffffffffffffff021916908373ffffffffffffffffffffffffffffffffffffffff1602179055508073ffffffffffffffffffffffffffffffffffffffff16600073ffffffffffffffffffffffffffffffffffffffff167f8be0079c531659141344cd1fd0a4f28419497f9722a3daafe3b4186f6b6457e060405160405180910390a3506100cc565b600033905090565b611d7d806100db6000396000f3fe6080604052600436106200007a5760003560e01c80638da5cb5b11620000555780638da5cb5b14620000e7578063bfb231d21462000117578063cd31831e146200015e578063f2fde38b146200018c576200007a565b8063715018a6146200007f578063800fb83f14620000995780638c55174214620000b9575b600080fd5b3480156200008c57600080fd5b5062000097620001ba565b005b620000b76004803603810190620000b1919062000f44565b620002fb565b005b348015620000c657600080fd5b50620000e56004803603810190620000df919062000eea565b6200056a565b005b348015620000f457600080fd5b50620000ff620007f7565b6040516200010e919062001176565b60405180910390f35b3480156200012457600080fd5b506200014360048036038101906200013d919062000f44565b62000820565b604051620001559493929190620011d0565b60405180910390f35b3480156200016b57600080fd5b506200018a600480360381019062000184919062000f44565b6200090d565b005b3480156200019957600080fd5b50620001b86004803603810190620001b2919062000ebe565b62000ba5565b005b620001c462000d58565b73ffffffffffffffffffffffffffffffffffffffff16620001e4620007f7565b73ffffffffffffffffffffffffffffffffffffffff16146200023d576040517f08c379a0000000000000000000000000000000000000000000000000000000008152600401620002349062001268565b60405180910390fd5b600073ffffffffffffffffffffffffffffffffffffffff1660008054906101000a900473ffffffffffffffffffffffffffffffffffffffff1673ffffffffffffffffffffffffffffffffffffffff167f8be0079c531659141344cd1fd0a4f28419497f9722a3daafe3b4186f6b6457e060405160405180910390a360008060006101000a81548173ffffffffffffffffffffffffffffffffffffffff021916908373ffffffffffffffffffffffffffffffffffffffff160217905550565b3460016000838152602001908152602001600020600201541462000356576040517f08c379a00000000000000000000000000000000000000000000000000000000081526004016200034d90620012ac565b60405180910390fd5b6000600281111562000391577f4e487b7100000000000000000000000000000000000000000000000000000000600052602160045260246000fd5b6001600083815260200190815260200160002060030160009054906101000a900460ff166002811115620003ee577f4e487b7100000000000000000000000000000000000000000000000000000000600052602160045260246000fd5b1462000431576040517f08c379a0000000000000000000000000000000000000000000000000000000008152600401620004289062001246565b60405180910390fd5b600180600083815260200190815260200160002060030160006101000a81548160ff0219169083600281111562000491577f4e487b7100000000000000000000000000000000000000000000000000000000600052602160045260246000fd5b02179055507fa4035636e99f06b7651a604c1019fa4e8779fe68ef27eeb74dff2de348f6199b816001600084815260200190815260200160002060030160009054906101000a900460ff16600281111562000515577f4e487b7100000000000000000000000000000000000000000000000000000000600052602160045260246000fd5b60016000600254815260200190815260200160002060000160009054906101000a900473ffffffffffffffffffffffffffffffffffffffff166040516200055f93929190620012ce565b60405180910390a150565b6200057462000d58565b73ffffffffffffffffffffffffffffffffffffffff1662000594620007f7565b73ffffffffffffffffffffffffffffffffffffffff1614620005ed576040517f08c379a0000000000000000000000000000000000000000000000000000000008152600401620005e49062001268565b60405180910390fd5b60003082600254604051620006029062000d60565b620006109392919062001193565b604051809103906000f0801580156200062d573d6000803e3d6000fd5b5090508060016000600254815260200190815260200160002060000160006101000a81548173ffffffffffffffffffffffffffffffffffffffff021916908373ffffffffffffffffffffffffffffffffffffffff160217905550826001600060025481526020019081526020016000206001019080519060200190620006b592919062000d6e565b508160016000600254815260200190815260200160002060020181905550600060016000600254815260200190815260200160002060030160006101000a81548160ff0219169083600281111562000736577f4e487b7100000000000000000000000000000000000000000000000000000000600052602160045260246000fd5b0217905550600260008154809291906200075090620014c0565b91905055507fa4035636e99f06b7651a604c1019fa4e8779fe68ef27eeb74dff2de348f6199b60025460016000600254815260200190815260200160002060030160009054906101000a900460ff166002811115620007d8577f4e487b7100000000000000000000000000000000000000000000000000000000600052602160045260246000fd5b83604051620007ea93929190620012ce565b60405180910390a1505050565b60008060009054906101000a900473ffffffffffffffffffffffffffffffffffffffff16905090565b60016020528060005260406000206000915090508060000160009054906101000a900473ffffffffffffffffffffffffffffffffffffffff16908060010180546200086b906200148a565b80601f016020809104026020016040519081016040528092919081815260200182805462000899906200148a565b8015620008ea5780601f10620008be57610100808354040283529160200191620008ea565b820191906000526020600020905b815481529060010190602001808311620008cc57829003601f168201915b5050505050908060020154908060030160009054906101000a900460ff16905084565b6200091762000d58565b73ffffffffffffffffffffffffffffffffffffffff1662000937620007f7565b73ffffffffffffffffffffffffffffffffffffffff161462000990576040517f08c379a0000000000000000000000000000000000000000000000000000000008152600401620009879062001268565b60405180910390fd5b60016002811115620009cb577f4e487b7100000000000000000000000000000000000000000000000000000000600052602160045260246000fd5b6001600083815260200190815260200160002060030160009054906101000a900460ff16600281111562000a28577f4e487b7100000000000000000000000000000000000000000000000000000000600052602160045260246000fd5b1462000a6b576040517f08c379a000000000000000000000000000000000000000000000000000000000815260040162000a62906200128a565b60405180910390fd5b60026001600083815260200190815260200160002060030160006101000a81548160ff0219169083600281111562000acc577f4e487b7100000000000000000000000000000000000000000000000000000000600052602160045260246000fd5b02179055507fa4035636e99f06b7651a604c1019fa4e8779fe68ef27eeb74dff2de348f6199b816001600084815260200190815260200160002060030160009054906101000a900460ff16600281111562000b50577f4e487b7100000000000000000000000000000000000000000000000000000000600052602160045260246000fd5b60016000600254815260200190815260200160002060000160009054906101000a900473ffffffffffffffffffffffffffffffffffffffff1660405162000b9a93929190620012ce565b60405180910390a150565b62000baf62000d58565b73ffffffffffffffffffffffffffffffffffffffff1662000bcf620007f7565b73ffffffffffffffffffffffffffffffffffffffff161462000c28576040517f08c379a000000000000000000000000000000000000000000000000000000000815260040162000c1f9062001268565b60405180910390fd5b600073ffffffffffffffffffffffffffffffffffffffff168173ffffffffffffffffffffffffffffffffffffffff16141562000c9b576040517f08c379a000000000000000000000000000000000000000000000000000000000815260040162000c929062001224565b60405180910390fd5b8073ffffffffffffffffffffffffffffffffffffffff1660008054906101000a900473ffffffffffffffffffffffffffffffffffffffff1673ffffffffffffffffffffffffffffffffffffffff167f8be0079c531659141344cd1fd0a4f28419497f9722a3daafe3b4186f6b6457e060405160405180910390a3806000806101000a81548173ffffffffffffffffffffffffffffffffffffffff021916908373ffffffffffffffffffffffffffffffffffffffff16021790555050565b600033905090565b610721806200162783390190565b82805462000d7c906200148a565b90600052602060002090601f01602090048101928262000da0576000855562000dec565b82601f1062000dbb57805160ff191683800117855562000dec565b8280016001018555821562000dec579182015b8281111562000deb57825182559160200191906001019062000dce565b5b50905062000dfb919062000dff565b5090565b5b8082111562000e1a57600081600090555060010162000e00565b5090565b600062000e3562000e2f846200133f565b6200130b565b90508281526020810184848401111562000e4e57600080fd5b62000e5b84828562001445565b509392505050565b60008135905062000e7481620015f2565b92915050565b600082601f83011262000e8c57600080fd5b813562000e9e84826020860162000e1e565b91505092915050565b60008135905062000eb8816200160c565b92915050565b60006020828403121562000ed157600080fd5b600062000ee18482850162000e63565b91505092915050565b6000806040838503121562000efe57600080fd5b600083013567ffffffffffffffff81111562000f1957600080fd5b62000f278582860162000e7a565b925050602062000f3a8582860162000ea7565b9150509250929050565b60006020828403121562000f5757600080fd5b600062000f678482850162000ea7565b91505092915050565b62000f7b816200138e565b82525050565b62000f8c81620013e1565b82525050565b62000f9d8162001409565b82525050565b62000fae8162001431565b82525050565b600062000fc18262001372565b62000fcd81856200137d565b935062000fdf81856020860162001454565b62000fea81620015ca565b840191505092915050565b6000620010046026836200137d565b91507f4f776e61626c653a206e6577206f776e657220697320746865207a65726f206160008301527f64647265737300000000000000000000000000000000000000000000000000006020830152604082019050919050565b60006200106c601a836200137d565b91507f746869732069742077617320616c7265616479207061696465640000000000006000830152602082019050919050565b6000620010ae6020836200137d565b91507f4f776e61626c653a2063616c6c6572206973206e6f7420746865206f776e65726000830152602082019050919050565b6000620010f0601d836200137d565b91507f4974656d206e65656420746f20626520696e20506169642053746174650000006000830152602082019050919050565b600062001132601b836200137d565b91507f4f6e6c792066756c6c207061796d656e742061636365706574656400000000006000830152602082019050919050565b6200117081620013d7565b82525050565b60006020820190506200118d600083018462000f70565b92915050565b6000606082019050620011aa600083018662000f81565b620011b9602083018562001165565b620011c8604083018462001165565b949350505050565b6000608082019050620011e7600083018762000f92565b8181036020830152620011fb818662000fb4565b90506200120c604083018562001165565b6200121b606083018462000fa3565b95945050505050565b600060208201905081810360008301526200123f8162000ff5565b9050919050565b6000602082019050818103600083015262001261816200105d565b9050919050565b6000602082019050818103600083015262001283816200109f565b9050919050565b60006020820190508181036000830152620012a581620010e1565b9050919050565b60006020820190508181036000830152620012c78162001123565b9050919050565b6000606082019050620012e5600083018662001165565b620012f4602083018562001165565b62001303604083018462000f70565b949350505050565b6000604051905081810181811067ffffffffffffffff821117156200133557620013346200159b565b5b8060405250919050565b600067ffffffffffffffff8211156200135d576200135c6200159b565b5b601f19601f8301169050602081019050919050565b600081519050919050565b600082825260208201905092915050565b60006200139b82620013b7565b9050919050565b6000819050620013b282620015db565b919050565b600073ffffffffffffffffffffffffffffffffffffffff82169050919050565b6000819050919050565b6000620013ee82620013f5565b9050919050565b60006200140282620013b7565b9050919050565b600062001416826200141d565b9050919050565b60006200142a82620013b7565b9050919050565b60006200143e82620013a2565b9050919050565b82818337600083830152505050565b60005b838110156200147457808201518184015260208101905062001457565b8381111562001484576000848401525b50505050565b60006002820490506001821680620014a357607f821691505b60208210811415620014ba57620014b96200156c565b5b50919050565b6000620014cd82620013d7565b91507fffffffffffffffffffffffffffffffffffffffffffffffffffffffffffffffff8214156200150357620015026200150e565b5b600182019050919050565b7f4e487b7100000000000000000000000000000000000000000000000000000000600052601160045260246000fd5b7f4e487b7100000000000000000000000000000000000000000000000000000000600052602160045260246000fd5b7f4e487b7100000000000000000000000000000000000000000000000000000000600052602260045260246000fd5b7f4e487b7100000000000000000000000000000000000000000000000000000000600052604160045260246000fd5b6000601f19601f8301169050919050565b60038110620015ef57620015ee6200153d565b5b50565b620015fd816200138e565b81146200160957600080fd5b50565b6200161781620013d7565b81146200162357600080fd5b5056fe608060405234801561001057600080fd5b50604051610721380380610721833981810160405281019061003291906100b3565b816000819055508060028190555082600360006101000a81548173ffffffffffffffffffffffffffffffffffffffff021916908373ffffffffffffffffffffffffffffffffffffffff16021790555050505061017e565b60008151905061009881610150565b92915050565b6000815190506100ad81610167565b92915050565b6000806000606084860312156100c857600080fd5b60006100d686828701610089565b93505060206100e78682870161009e565b92505060406100f88682870161009e565b9150509250925092565b600061010d82610126565b9050919050565b600061011f82610102565b9050919050565b600073ffffffffffffffffffffffffffffffffffffffff82169050919050565b6000819050919050565b61015981610114565b811461016457600080fd5b50565b61017081610146565b811461017b57600080fd5b50565b6105948061018d6000396000f3fe6080604052600436106100385760003560e01c80632986c0e5146102505780633c8da5881461027b57806389794d00146102a657610241565b3661024157600060015414610082576040517f08c379a0000000000000000000000000000000000000000000000000000000008152600401610079906103fa565b60405180910390fd5b34600054146100c6576040517f08c379a00000000000000000000000000000000000000000000000000000000081526004016100bd9061043a565b60405180910390fd5b34600160008282546100d8919061049c565b925050819055506000600360009054906101000a900473ffffffffffffffffffffffffffffffffffffffff1673ffffffffffffffffffffffffffffffffffffffff163460025460405160240161012e919061045a565b6040516020818303038152906040527f800fb83f000000000000000000000000000000000000000000000000000000007bffffffffffffffffffffffffffffffffffffffffffffffffffffffff19166020820180517bffffffffffffffffffffffffffffffffffffffffffffffffffffffff83818316178352505050506040516101b891906103e3565b60006040518083038185875af1925050503d80600081146101f5576040519150601f19603f3d011682016040523d82523d6000602084013e6101fa565b606091505b505090508061023e576040517f08c379a00000000000000000000000000000000000000000000000000000000081526004016102359061041a565b60405180910390fd5b50005b34801561024d57600080fd5b50005b34801561025c57600080fd5b506102656102d1565b604051610272919061045a565b60405180910390f35b34801561028757600080fd5b506102906102d7565b60405161029d919061045a565b60405180910390f35b3480156102b257600080fd5b506102bb6102dd565b6040516102c8919061045a565b60405180910390f35b60025481565b60005481565b60015481565b60006102ee82610475565b6102f88185610480565b93506103088185602086016104fc565b80840191505092915050565b600061032160168361048b565b91507f4974656d20697320616c726561647920706169646564000000000000000000006000830152602082019050919050565b6000610361601d8361048b565b91507f54726173616374696f6e206661696c65642c2063616e63656c6c696e670000006000830152602082019050919050565b60006103a1601c8361048b565b91507f77726f6e672076616c75652073656e742c2063616e63656c6c696e67000000006000830152602082019050919050565b6103dd816104f2565b82525050565b60006103ef82846102e3565b915081905092915050565b6000602082019050818103600083015261041381610314565b9050919050565b6000602082019050818103600083015261043381610354565b9050919050565b6000602082019050818103600083015261045381610394565b9050919050565b600060208201905061046f60008301846103d4565b92915050565b600081519050919050565b600081905092915050565b600082825260208201905092915050565b60006104a7826104f2565b91506104b2836104f2565b9250827fffffffffffffffffffffffffffffffffffffffffffffffffffffffffffffffff038211156104e7576104e661052f565b5b828201905092915050565b6000819050919050565b60005b8381101561051a5780820151818401526020810190506104ff565b83811115610529576000848401525b50505050565b7f4e487b7100000000000000000000000000000000000000000000000000000000600052601160045260246000fdfea264697066735822122015424255f60da60747b791f1bc4099ae8e7dd95e5f6f0e781a75c4d10c559d1a64736f6c63430008000033a264697066735822122026f7945e9e1a3c93297bd8ea953eb4aec5d9ab4b0ce5eb458e7ac427229bfa6964736f6c63430008000033",
  "immutableReferences": {},
  "source": "// SPDX-License-Identifier: MIT\npragma solidity ^0.8.0;\n\nimport \"./openzeppelin-contracts_0.8/access/Ownable.sol\";\nimport \"./Item.sol\";\n\ncontract ItemManager is Ownable {\n    \n    enum SuplyChainState { Created, Paid, Delivered }\n    \n    struct SItem {\n        Item _item;\n        string _identifier;\n        uint _price;\n        ItemManager.SuplyChainState _state;\n    }\n    \n    mapping(uint => SItem ) public items;\n    \n    uint itemIndex;\n    \n    event SupplyChainStep(uint _itemIndex, uint _step, address _addressItem);\n    \n    function createItem(string memory _identifier, uint _price) public onlyOwner {\n        \n        Item item = new Item(this, _price, itemIndex);\n        items[itemIndex]._item = item;\n        items[itemIndex]._identifier = _identifier;\n        items[itemIndex]._price = _price;\n        items[itemIndex]._state = SuplyChainState.Created;\n        itemIndex++;\n        emit SupplyChainStep(itemIndex, uint(items[itemIndex]._state), address(item));\n         \n    }\n    \n    function triggerPayment(uint _itemIndex)  public payable {\n        // need to be sent with exact money of item's price\n        require(items[_itemIndex]._price == msg.value, \"Only full payment accepeted\");\n        // does not need to be paided yet\n        require(items[_itemIndex]._state == SuplyChainState.Created, \"this it was already paided\");\n        \n        items[_itemIndex]._state = SuplyChainState.Paid;\n        emit SupplyChainStep(_itemIndex, uint(items[_itemIndex]._state), address(items[itemIndex]._item) );\n        \n    }\n    \n    function triggerDelivery(uint _itemIndex) public onlyOwner {\n        // need to be in paid state\n        require(items[_itemIndex]._state == SuplyChainState.Paid, \"Item need to be in Paid State\");\n        items[_itemIndex]._state = SuplyChainState.Delivered;\n        \n        emit SupplyChainStep(_itemIndex, uint(items[_itemIndex]._state), address(items[itemIndex]._item));\n        \n    }\n}\n",
  "sourcePath": "/Users/ricardoteixeira/Documents/code/solidity/udemy_bootcamp/session07/01_next/contracts/ItemManager.sol",
  "compiler": {
    "name": "solc",
    "version": "0.8.0+commit.c7dfd78e.Emscripten.clang"
  },
  "schemaVersion": "3.4.1",
  "updatedAt": "2021-05-17T23:38:02.095Z",
  "networkType": "ethereum",
  "devdoc": {
    "kind": "dev",
    "methods": {
      "owner()": {
        "details": "Returns the address of the current owner."
      },
      "renounceOwnership()": {
        "details": "Leaves the contract without owner. It will not be possible to call `onlyOwner` functions anymore. Can only be called by the current owner. NOTE: Renouncing ownership will leave the contract without an owner, thereby removing any functionality that is only available to the owner."
      },
      "transferOwnership(address)": {
        "details": "Transfers ownership of the contract to a new account (`newOwner`). Can only be called by the current owner."
      }
    },
    "version": 1
  },
  "userdoc": {
    "kind": "user",
    "methods": {},
    "version": 1
  }
}