{
  "contractName": "ItemManager",
  "abi": [
    {
      "anonymous": false,
      "inputs": [
        {
          "indexed": true,
          "internalType": "address",
          "name": "previousOwner",
          "type": "address"
        },
        {
          "indexed": true,
          "internalType": "address",
          "name": "newOwner",
          "type": "address"
        }
      ],
      "name": "OwnershipTransferred",
      "type": "event"
    },
    {
      "anonymous": false,
      "inputs": [
        {
          "indexed": false,
          "internalType": "uint256",
          "name": "_itemIndex",
          "type": "uint256"
        },
        {
          "indexed": false,
          "internalType": "uint256",
          "name": "_step",
          "type": "uint256"
        },
        {
          "indexed": false,
          "internalType": "address",
          "name": "_addressItem",
          "type": "address"
        }
      ],
      "name": "SupplyChainStep",
      "type": "event"
    },
    {
      "inputs": [
        {
          "internalType": "uint256",
          "name": "",
          "type": "uint256"
        }
      ],
      "name": "items",
      "outputs": [
        {
          "internalType": "contract Item",
          "name": "_item",
          "type": "address"
        },
        {
          "internalType": "string",
          "name": "_identifier",
          "type": "string"
        },
        {
          "internalType": "uint256",
          "name": "_price",
          "type": "uint256"
        },
        {
          "internalType": "address",
          "name": "_owner",
          "type": "address"
        },
        {
          "internalType": "enum ItemManager.SuplyChainState",
          "name": "_state",
          "type": "uint8"
        }
      ],
      "stateMutability": "view",
      "type": "function",
      "constant": true
    },
    {
      "inputs": [],
      "name": "owner",
      "outputs": [
        {
          "internalType": "address",
          "name": "",
          "type": "address"
        }
      ],
      "stateMutability": "view",
      "type": "function",
      "constant": true
    },
    {
      "inputs": [],
      "name": "renounceOwnership",
      "outputs": [],
      "stateMutability": "nonpayable",
      "type": "function"
    },
    {
      "inputs": [
        {
          "internalType": "address",
          "name": "newOwner",
          "type": "address"
        }
      ],
      "name": "transferOwnership",
      "outputs": [],
      "stateMutability": "nonpayable",
      "type": "function"
    },
    {
      "inputs": [
        {
          "internalType": "string",
          "name": "_identifier",
          "type": "string"
        },
        {
          "internalType": "uint256",
          "name": "_price",
          "type": "uint256"
        }
      ],
      "name": "createItem",
      "outputs": [],
      "stateMutability": "nonpayable",
      "type": "function"
    },
    {
      "inputs": [
        {
          "internalType": "uint256",
          "name": "_itemIndex",
          "type": "uint256"
        }
      ],
      "name": "triggerPayment",
      "outputs": [],
      "stateMutability": "payable",
      "type": "function",
      "payable": true
    },
    {
      "inputs": [
        {
          "internalType": "uint256",
          "name": "_itemIndex",
          "type": "uint256"
        }
      ],
      "name": "triggerDelivery",
      "outputs": [],
      "stateMutability": "nonpayable",
      "type": "function"
    }
  ],
  "bytecode": "0x608060405234801561001057600080fd5b5060006100216100c460201b60201c565b9050806000806101000a81548173ffffffffffffffffffffffffffffffffffffffff021916908373ffffffffffffffffffffffffffffffffffffffff1602179055508073ffffffffffffffffffffffffffffffffffffffff16600073ffffffffffffffffffffffffffffffffffffffff167f8be0079c531659141344cd1fd0a4f28419497f9722a3daafe3b4186f6b6457e060405160405180910390a3506100cc565b600033905090565b611e12806100db6000396000f3fe6080604052600436106200007a5760003560e01c80638da5cb5b11620000555780638da5cb5b14620000e7578063bfb231d21462000117578063cd31831e146200015f578063f2fde38b146200018d576200007a565b8063715018a6146200007f578063800fb83f14620000995780638c55174214620000b9575b600080fd5b3480156200008c57600080fd5b5062000097620001bb565b005b620000b76004803603810190620000b1919062000f65565b620002fc565b005b348015620000c657600080fd5b50620000e56004803603810190620000df919062000f0b565b6200056b565b005b348015620000f457600080fd5b50620000ff620007cc565b6040516200010e9190620011d9565b60405180910390f35b3480156200012457600080fd5b506200014360048036038101906200013d919062000f65565b620007f5565b6040516200015695949392919062001233565b60405180910390f35b3480156200016c57600080fd5b506200018b600480360381019062000185919062000f65565b62000908565b005b3480156200019a57600080fd5b50620001b96004803603810190620001b3919062000edf565b62000bc6565b005b620001c562000d79565b73ffffffffffffffffffffffffffffffffffffffff16620001e5620007cc565b73ffffffffffffffffffffffffffffffffffffffff16146200023e576040517f08c379a00000000000000000000000000000000000000000000000000000000081526004016200023590620012fd565b60405180910390fd5b600073ffffffffffffffffffffffffffffffffffffffff1660008054906101000a900473ffffffffffffffffffffffffffffffffffffffff1673ffffffffffffffffffffffffffffffffffffffff167f8be0079c531659141344cd1fd0a4f28419497f9722a3daafe3b4186f6b6457e060405160405180910390a360008060006101000a81548173ffffffffffffffffffffffffffffffffffffffff021916908373ffffffffffffffffffffffffffffffffffffffff160217905550565b3460016000838152602001908152602001600020600201541462000357576040517f08c379a00000000000000000000000000000000000000000000000000000000081526004016200034e9062001341565b60405180910390fd5b6000600281111562000392577f4e487b7100000000000000000000000000000000000000000000000000000000600052602160045260246000fd5b6001600083815260200190815260200160002060030160149054906101000a900460ff166002811115620003ef577f4e487b7100000000000000000000000000000000000000000000000000000000600052602160045260246000fd5b1462000432576040517f08c379a00000000000000000000000000000000000000000000000000000000081526004016200042990620012db565b60405180910390fd5b600180600083815260200190815260200160002060030160146101000a81548160ff0219169083600281111562000492577f4e487b7100000000000000000000000000000000000000000000000000000000600052602160045260246000fd5b02179055507fa4035636e99f06b7651a604c1019fa4e8779fe68ef27eeb74dff2de348f6199b816001600084815260200190815260200160002060030160149054906101000a900460ff16600281111562000516577f4e487b7100000000000000000000000000000000000000000000000000000000600052602160045260246000fd5b60016000600254815260200190815260200160002060000160009054906101000a900473ffffffffffffffffffffffffffffffffffffffff16604051620005609392919062001363565b60405180910390a150565b60003082600254604051620005809062000d81565b6200058e93929190620011f6565b604051809103906000f080158015620005ab573d6000803e3d6000fd5b5090508060016000600254815260200190815260200160002060000160006101000a81548173ffffffffffffffffffffffffffffffffffffffff021916908373ffffffffffffffffffffffffffffffffffffffff1602179055508260016000600254815260200190815260200160002060010190805190602001906200063392919062000d8f565b5081600160006002548152602001908152602001600020600201819055503360016000600254815260200190815260200160002060030160006101000a81548173ffffffffffffffffffffffffffffffffffffffff021916908373ffffffffffffffffffffffffffffffffffffffff160217905550600060016000600254815260200190815260200160002060030160146101000a81548160ff021916908360028111156200070b577f4e487b7100000000000000000000000000000000000000000000000000000000600052602160045260246000fd5b02179055507fa4035636e99f06b7651a604c1019fa4e8779fe68ef27eeb74dff2de348f6199b60025460016000600254815260200190815260200160002060030160149054906101000a900460ff16600281111562000793577f4e487b7100000000000000000000000000000000000000000000000000000000600052602160045260246000fd5b83604051620007a59392919062001363565b60405180910390a160026000815480929190620007c29062001555565b9190505550505050565b60008060009054906101000a900473ffffffffffffffffffffffffffffffffffffffff16905090565b60016020528060005260406000206000915090508060000160009054906101000a900473ffffffffffffffffffffffffffffffffffffffff169080600101805462000840906200151f565b80601f01602080910402602001604051908101604052809291908181526020018280546200086e906200151f565b8015620008bf5780601f106200089357610100808354040283529160200191620008bf565b820191906000526020600020905b815481529060010190602001808311620008a157829003601f168201915b5050505050908060020154908060030160009054906101000a900473ffffffffffffffffffffffffffffffffffffffff16908060030160149054906101000a900460ff16905085565b803373ffffffffffffffffffffffffffffffffffffffff166001600083815260200190815260200160002060030160009054906101000a900473ffffffffffffffffffffffffffffffffffffffff1673ffffffffffffffffffffffffffffffffffffffff1614620009b0576040517f08c379a0000000000000000000000000000000000000000000000000000000008152600401620009a790620012b9565b60405180910390fd5b60016002811115620009eb577f4e487b7100000000000000000000000000000000000000000000000000000000600052602160045260246000fd5b6001600084815260200190815260200160002060030160149054906101000a900460ff16600281111562000a48577f4e487b7100000000000000000000000000000000000000000000000000000000600052602160045260246000fd5b1462000a8b576040517f08c379a000000000000000000000000000000000000000000000000000000000815260040162000a82906200131f565b60405180910390fd5b60026001600084815260200190815260200160002060030160146101000a81548160ff0219169083600281111562000aec577f4e487b7100000000000000000000000000000000000000000000000000000000600052602160045260246000fd5b02179055507fa4035636e99f06b7651a604c1019fa4e8779fe68ef27eeb74dff2de348f6199b826001600085815260200190815260200160002060030160149054906101000a900460ff16600281111562000b70577f4e487b7100000000000000000000000000000000000000000000000000000000600052602160045260246000fd5b60016000600254815260200190815260200160002060000160009054906101000a900473ffffffffffffffffffffffffffffffffffffffff1660405162000bba9392919062001363565b60405180910390a15050565b62000bd062000d79565b73ffffffffffffffffffffffffffffffffffffffff1662000bf0620007cc565b73ffffffffffffffffffffffffffffffffffffffff161462000c49576040517f08c379a000000000000000000000000000000000000000000000000000000000815260040162000c4090620012fd565b60405180910390fd5b600073ffffffffffffffffffffffffffffffffffffffff168173ffffffffffffffffffffffffffffffffffffffff16141562000cbc576040517f08c379a000000000000000000000000000000000000000000000000000000000815260040162000cb39062001297565b60405180910390fd5b8073ffffffffffffffffffffffffffffffffffffffff1660008054906101000a900473ffffffffffffffffffffffffffffffffffffffff1673ffffffffffffffffffffffffffffffffffffffff167f8be0079c531659141344cd1fd0a4f28419497f9722a3daafe3b4186f6b6457e060405160405180910390a3806000806101000a81548173ffffffffffffffffffffffffffffffffffffffff021916908373ffffffffffffffffffffffffffffffffffffffff16021790555050565b600033905090565b61072180620016bc83390190565b82805462000d9d906200151f565b90600052602060002090601f01602090048101928262000dc1576000855562000e0d565b82601f1062000ddc57805160ff191683800117855562000e0d565b8280016001018555821562000e0d579182015b8281111562000e0c57825182559160200191906001019062000def565b5b50905062000e1c919062000e20565b5090565b5b8082111562000e3b57600081600090555060010162000e21565b5090565b600062000e5662000e5084620013d4565b620013a0565b90508281526020810184848401111562000e6f57600080fd5b62000e7c848285620014da565b509392505050565b60008135905062000e958162001687565b92915050565b600082601f83011262000ead57600080fd5b813562000ebf84826020860162000e3f565b91505092915050565b60008135905062000ed981620016a1565b92915050565b60006020828403121562000ef257600080fd5b600062000f028482850162000e84565b91505092915050565b6000806040838503121562000f1f57600080fd5b600083013567ffffffffffffffff81111562000f3a57600080fd5b62000f488582860162000e9b565b925050602062000f5b8582860162000ec8565b9150509250929050565b60006020828403121562000f7857600080fd5b600062000f888482850162000ec8565b91505092915050565b62000f9c8162001423565b82525050565b62000fad8162001476565b82525050565b62000fbe816200149e565b82525050565b62000fcf81620014c6565b82525050565b600062000fe28262001407565b62000fee818562001412565b935062001000818560208601620014e9565b6200100b816200165f565b840191505092915050565b60006200102560268362001412565b91507f4f776e61626c653a206e6577206f776e657220697320746865207a65726f206160008301527f64647265737300000000000000000000000000000000000000000000000000006020830152604082019050919050565b60006200108d60158362001412565b91507f596f7520617265206e6f7420746865206f776e657200000000000000000000006000830152602082019050919050565b6000620010cf601a8362001412565b91507f746869732069742077617320616c7265616479207061696465640000000000006000830152602082019050919050565b60006200111160208362001412565b91507f4f776e61626c653a2063616c6c6572206973206e6f7420746865206f776e65726000830152602082019050919050565b600062001153601d8362001412565b91507f4974656d206e65656420746f20626520696e20506169642053746174650000006000830152602082019050919050565b600062001195601b8362001412565b91507f4f6e6c792066756c6c207061796d656e742061636365706574656400000000006000830152602082019050919050565b620011d3816200146c565b82525050565b6000602082019050620011f0600083018462000f91565b92915050565b60006060820190506200120d600083018662000fa2565b6200121c6020830185620011c8565b6200122b6040830184620011c8565b949350505050565b600060a0820190506200124a600083018862000fb3565b81810360208301526200125e818762000fd5565b90506200126f6040830186620011c8565b6200127e606083018562000f91565b6200128d608083018462000fc4565b9695505050505050565b60006020820190508181036000830152620012b28162001016565b9050919050565b60006020820190508181036000830152620012d4816200107e565b9050919050565b60006020820190508181036000830152620012f681620010c0565b9050919050565b60006020820190508181036000830152620013188162001102565b9050919050565b600060208201905081810360008301526200133a8162001144565b9050919050565b600060208201905081810360008301526200135c8162001186565b9050919050565b60006060820190506200137a6000830186620011c8565b620013896020830185620011c8565b62001398604083018462000f91565b949350505050565b6000604051905081810181811067ffffffffffffffff82111715620013ca57620013c962001630565b5b8060405250919050565b600067ffffffffffffffff821115620013f257620013f162001630565b5b601f19601f8301169050602081019050919050565b600081519050919050565b600082825260208201905092915050565b600062001430826200144c565b9050919050565b6000819050620014478262001670565b919050565b600073ffffffffffffffffffffffffffffffffffffffff82169050919050565b6000819050919050565b600062001483826200148a565b9050919050565b600062001497826200144c565b9050919050565b6000620014ab82620014b2565b9050919050565b6000620014bf826200144c565b9050919050565b6000620014d38262001437565b9050919050565b82818337600083830152505050565b60005b8381101562001509578082015181840152602081019050620014ec565b8381111562001519576000848401525b50505050565b600060028204905060018216806200153857607f821691505b602082108114156200154f576200154e62001601565b5b50919050565b600062001562826200146c565b91507fffffffffffffffffffffffffffffffffffffffffffffffffffffffffffffffff821415620015985762001597620015a3565b5b600182019050919050565b7f4e487b7100000000000000000000000000000000000000000000000000000000600052601160045260246000fd5b7f4e487b7100000000000000000000000000000000000000000000000000000000600052602160045260246000fd5b7f4e487b7100000000000000000000000000000000000000000000000000000000600052602260045260246000fd5b7f4e487b7100000000000000000000000000000000000000000000000000000000600052604160045260246000fd5b6000601f19601f8301169050919050565b60038110620016845762001683620015d2565b5b50565b620016928162001423565b81146200169e57600080fd5b50565b620016ac816200146c565b8114620016b857600080fd5b5056fe608060405234801561001057600080fd5b50604051610721380380610721833981810160405281019061003291906100b3565b816000819055508060028190555082600360006101000a81548173ffffffffffffffffffffffffffffffffffffffff021916908373ffffffffffffffffffffffffffffffffffffffff16021790555050505061017e565b60008151905061009881610150565b92915050565b6000815190506100ad81610167565b92915050565b6000806000606084860312156100c857600080fd5b60006100d686828701610089565b93505060206100e78682870161009e565b92505060406100f88682870161009e565b9150509250925092565b600061010d82610126565b9050919050565b600061011f82610102565b9050919050565b600073ffffffffffffffffffffffffffffffffffffffff82169050919050565b6000819050919050565b61015981610114565b811461016457600080fd5b50565b61017081610146565b811461017b57600080fd5b50565b6105948061018d6000396000f3fe6080604052600436106100385760003560e01c80632986c0e5146102505780633c8da5881461027b57806389794d00146102a657610241565b3661024157600060015414610082576040517f08c379a0000000000000000000000000000000000000000000000000000000008152600401610079906103fa565b60405180910390fd5b34600054146100c6576040517f08c379a00000000000000000000000000000000000000000000000000000000081526004016100bd9061043a565b60405180910390fd5b34600160008282546100d8919061049c565b925050819055506000600360009054906101000a900473ffffffffffffffffffffffffffffffffffffffff1673ffffffffffffffffffffffffffffffffffffffff163460025460405160240161012e919061045a565b6040516020818303038152906040527f800fb83f000000000000000000000000000000000000000000000000000000007bffffffffffffffffffffffffffffffffffffffffffffffffffffffff19166020820180517bffffffffffffffffffffffffffffffffffffffffffffffffffffffff83818316178352505050506040516101b891906103e3565b60006040518083038185875af1925050503d80600081146101f5576040519150601f19603f3d011682016040523d82523d6000602084013e6101fa565b606091505b505090508061023e576040517f08c379a00000000000000000000000000000000000000000000000000000000081526004016102359061041a565b60405180910390fd5b50005b34801561024d57600080fd5b50005b34801561025c57600080fd5b506102656102d1565b604051610272919061045a565b60405180910390f35b34801561028757600080fd5b506102906102d7565b60405161029d919061045a565b60405180910390f35b3480156102b257600080fd5b506102bb6102dd565b6040516102c8919061045a565b60405180910390f35b60025481565b60005481565b60015481565b60006102ee82610475565b6102f88185610480565b93506103088185602086016104fc565b80840191505092915050565b600061032160168361048b565b91507f4974656d20697320616c726561647920706169646564000000000000000000006000830152602082019050919050565b6000610361601d8361048b565b91507f54726173616374696f6e206661696c65642c2063616e63656c6c696e670000006000830152602082019050919050565b60006103a1601c8361048b565b91507f77726f6e672076616c75652073656e742c2063616e63656c6c696e67000000006000830152602082019050919050565b6103dd816104f2565b82525050565b60006103ef82846102e3565b915081905092915050565b6000602082019050818103600083015261041381610314565b9050919050565b6000602082019050818103600083015261043381610354565b9050919050565b6000602082019050818103600083015261045381610394565b9050919050565b600060208201905061046f60008301846103d4565b92915050565b600081519050919050565b600081905092915050565b600082825260208201905092915050565b60006104a7826104f2565b91506104b2836104f2565b9250827fffffffffffffffffffffffffffffffffffffffffffffffffffffffffffffffff038211156104e7576104e661052f565b5b828201905092915050565b6000819050919050565b60005b8381101561051a5780820151818401526020810190506104ff565b83811115610529576000848401525b50505050565b7f4e487b7100000000000000000000000000000000000000000000000000000000600052601160045260246000fdfea2646970667358221220c20db6d78c3d0b742c1bd2a2024450e927b99ddc8208e8810720e7249d23970f64736f6c63430008000033a2646970667358221220cfb4f86cbdaedcf83e8ed784b0e70ec4f64f1bad30f9e95a3293b59d01829abe64736f6c63430008000033",
  "immutableReferences": {},
  "source": "// SPDX-License-Identifier: MIT\npragma solidity ^0.8.0;\n\nimport \"./openzeppelin-contracts_0.8/access/Ownable.sol\";\nimport \"./Item.sol\";\n\ncontract ItemManager is Ownable {\n    enum SuplyChainState {Created, Paid, Delivered}\n\n    struct SItem {\n        Item _item;\n        string _identifier;\n        uint256 _price;\n        address _owner;\n        ItemManager.SuplyChainState _state;\n    }\n\n    mapping(uint256 => SItem) public items;\n\n    uint256 itemIndex;\n\n    event SupplyChainStep(\n        uint256 _itemIndex,\n        uint256 _step,\n        address _addressItem\n    );\n\n\n    modifier itemOwner(uint _itemIndex) {\n        require( items[_itemIndex]._owner == msg.sender, \"You are not the owner\");\n        _;\n    }\n\n    function createItem(string memory _identifier, uint256 _price)\n        public\n    {\n        Item item = new Item(this, _price, itemIndex);\n        items[itemIndex]._item = item;\n        items[itemIndex]._identifier = _identifier;\n        items[itemIndex]._price = _price;\n        items[itemIndex]._owner = msg.sender;\n        items[itemIndex]._state = SuplyChainState.Created;\n        \n        emit SupplyChainStep(\n            itemIndex,\n            uint256(items[itemIndex]._state),\n            address(item)\n        );\n        \n        itemIndex++;\n    }\n\n    function triggerPayment(uint256 _itemIndex) public payable {\n        // need to be sent with exact money of item's price\n        require(\n            items[_itemIndex]._price == msg.value,\n            \"Only full payment accepeted\"\n        );\n        // does not need to be paided yet\n        require(\n            items[_itemIndex]._state == SuplyChainState.Created,\n            \"this it was already paided\"\n        );\n\n        items[_itemIndex]._state = SuplyChainState.Paid;\n        emit SupplyChainStep(\n            _itemIndex,\n            uint256(items[_itemIndex]._state),\n            address(items[itemIndex]._item)\n        );\n    }\n\n    function triggerDelivery(uint256 _itemIndex) public itemOwner(_itemIndex) {\n        // need to be in paid state\n        require(\n            items[_itemIndex]._state == SuplyChainState.Paid,\n            \"Item need to be in Paid State\"\n        );\n        items[_itemIndex]._state = SuplyChainState.Delivered;\n\n        emit SupplyChainStep(\n            _itemIndex,\n            uint256(items[_itemIndex]._state),\n            address(items[itemIndex]._item)\n        );\n    }\n}\n",
  "sourcePath": "/Users/ricardoteixeira/Documents/code/solidity/udemy_bootcamp/session07/01_next/contracts/ItemManager.sol",
  "compiler": {
    "name": "solc",
    "version": "0.8.0+commit.c7dfd78e.Emscripten.clang"
  },
  "schemaVersion": "3.4.1",
  "updatedAt": "2021-05-22T19:37:39.717Z",
  "networkType": "ethereum",
  "devdoc": {
    "kind": "dev",
    "methods": {
      "owner()": {
        "details": "Returns the address of the current owner."
      },
      "renounceOwnership()": {
        "details": "Leaves the contract without owner. It will not be possible to call `onlyOwner` functions anymore. Can only be called by the current owner. NOTE: Renouncing ownership will leave the contract without an owner, thereby removing any functionality that is only available to the owner."
      },
      "transferOwnership(address)": {
        "details": "Transfers ownership of the contract to a new account (`newOwner`). Can only be called by the current owner."
      }
    },
    "version": 1
  },
  "userdoc": {
    "kind": "user",
    "methods": {},
    "version": 1
  }
}